:0600000000F001EFFFF02B
:020000040001F9
:10FE0200000172EFFFF012D08B8233D08B8031D0A1
:10FE12008B8C2FD08B8E2DD08B842BD08B8629D0A0
:10FE22008B8827D08B8A25D024D023D001C003F021
:10FE320002C004F00450000AD8B401D01AD0035012
:10FE4200000AD8B4E1D7010AD8B4E0D7030AD8B47B
:10FE5200DFD7010AD8B4DED7070AD8B4DDD7010A42
:10FE6200D8B4DCD7030AD8B4DBD7010AD8B4DAD7BE
:10FE720000D0120012D08B9233D08B9031D08B9C59
:10FE82002FD08B9E2DD08B942BD08B9629D08B98F4
:10FE920027D08B9A25D024D023D001C003F002C0F2
:10FEA20004F00450000AD8B401D01AD00350000A5A
:10FEB200D8B4E1D7010AD8B4E0D7030AD8B4DFD75F
:10FEC200010AD8B4DED7070AD8B4DDD7010AD8B4FC
:10FED200DCD7030AD8B4DBD7010AD8B4DAD700D00A
:10FEE20012000F0EC16E010E926E010E996E010E7E
:10FEF200976E000E946E000E076E000E066E85A2BF
:10FF020001D001D03ED0000E096E000E086E000E28
:10FF1200096E000E086E0950800A800F040ED8B4D4
:10FF2200085CD8A001D001D002D0E5D7E4D708C040
:10FF320001F009C002F03BECFFF0820E056EDD0E0F
:10FF4200E82EFED7052EFCD700D008C001F009C06C
:10FF520002F004ECFFF0820E056EDD0EE82EFED7F5
:10FF6200052EFCD700D0084A092A0950800A800FC2
:10FF7200040ED8B4085CD8A001D001D0D8D7BBD722
:10FF8200BAD7000E076E040E066E0750800A800F65
:10FF9200080ED8B4065CD8A001D001D002D0ABD7ED
:10FFA200AAD706C001F007C002F03BECFFF0820EB8
:10FFB200056EDD0EE82EFED7052EFCD700D006C05A
:10FFC20001F007C002F004ECFFF0820E056EDD0EB8
:10FFD200E82EFED7052EFCD700D0064A072A075086
:10FFE200800A800F080ED8B4065CD8A001D001D0D8
:0EFFF200D8D781D780D77FD77ED701EF00F018
:020000040020DA
:08000000FFFFFFFFFFFFFFFF00
:020000040030CA
:0E000000FF010D0E830280FFFFC0FFE0FF40F6
:00000001FF
