:0600000000F015EFFFF017
:020000040001F9
:10FE2A0000014DEFFFF0000E9A6E919E919A918C0F
:10FE3A0000F000D000D0918A1200000E9A6E919EB6
:10FE4A00918C918A919A00F000D000D0919C120076
:10FE5A000F0EC16E010E926E010E996E010E976E13
:10FE6A00000E946E1200200E9A6E919E918C00F0F4
:10FE7A0000D091AC01D001D0FCD700F000D0000E28
:10FE8A0091BA010E016E00D0919C015000D012006F
:10FE9A002DECFFF000D0000E026E030E016EC9ECCD
:10FEAA00FFF022ECFFF0066E0A0E026E06506AECB4
:10FEBA00FFF0000E026E030E016E92ECFFF018ECDA
:10FECA00FFF0E9D7E8D701EF00F0036E800E056E68
:10FEDA000350036E000E046E0350000E9A6E919E3C
:10FEEA0013D0042A919A025005140009D8B401D0FB
:10FEFA0001D002D0918A02D0919A00D038ECFFF05A
:10FF0A00D8900530056E00D0056601D001D0E9D73A
:10FF1A00918A38ECFFF000D0120012D08B8233D0D5
:10FF2A008B8031D08B8C2FD08B8E2DD08B842BD085
:10FF3A008B8629D08B8827D08B8A25D024D023D0B2
:10FF4A0001C003F002C004F00450000AD8B401D082
:10FF5A001AD00350000AD8B4E1D7010AD8B4E0D7BE
:10FF6A00030AD8B4DFD7010AD8B4DED7070AD8B44F
:10FF7A00DDD7010AD8B4DCD7030AD8B4DBD7010A23
:10FF8A00D8B4DAD700D0120012D08B9233D08B902B
:10FF9A0031D08B9C2FD08B9E2DD08B942BD08B96CF
:10FFAA0029D08B9827D08B9A25D024D023D001C072
:10FFBA0003F002C004F00450000AD8B401D01AD0E9
:10FFCA000350000AD8B4E1D7010AD8B4E0D7030A2B
:10FFDA00D8B4DFD7010AD8B4DED7070AD8B4DDD738
:10FFEA00010AD8B4DCD7030AD8B4DBD7010AD8B4DB
:06FFFA00DAD700D012006E
:020000040020DA
:08000000FFFFFFFFFFFFFFFF00
:020000040030CA
:0E000000FF010D0E830280FFFFC0FFE0FF40F6
:00000001FF
