:0600000000F0E2EFFEF04B
:020000040001F9
:10FDC4000F6A0E6A0D6A0C6A0B6A0A6A000159EF1F
:10FDD400FFF012D0828233D0828031D0828C2FD037
:10FDE400828E2DD082842BD0828629D0828827D0FF
:10FDF400828A25D024D023D001C003F002C004F0AD
:10FE04000450000AD8B401D01AD00350000AD8B460
:10FE1400E1D7010AD8B4E0D7030AD8B4DFD7010A7E
:10FE2400D8B4DED7070AD8B4DDD7010AD8B4DCD7F2
:10FE3400030AD8B4DBD7010AD8B4DAD700D0120049
:10FE440012D0829233D0829031D0829C2FD0829E65
:10FE54002DD082942BD0829629D0829827D0829A52
:10FE640025D024D023D001C003F002C004F00450F4
:10FE7400000AD8B401D01AD00350000AD8B4E1D78C
:10FE8400010AD8B4E0D7030AD8B4DFD7010AD8B43A
:10FE9400DED7070AD8B4DDD7010AD8B4DCD7030A01
:10FEA400D8B4DBD7010AD8B4DAD700D012000F0EC9
:10FEB400C16E010E926E000E946E00D0000E026EA2
:10FEC400020E016E22ECFFF0820E056EDD0EE82EAE
:10FED400FED7052EFCD700D0000E026E020E016E76
:10FEE400EBECFEF0820E056EDD0EE82EFED7052E3D
:10FEF400FCD700D0000E076E000E066E80AA01D05B
:10FF040001D03ED0000E096E000E086E000E096E80
:10FF1400000E086E0950800A800F040ED8B4085CE5
:10FF2400D8A001D001D002D0C9D7C8D708C001F0E9
:10FF340009C002F022ECFFF0820E056EDD0EE82E01
:10FF4400FED7052EFCD700D008C001F009C002F08E
:10FF5400EBECFEF0820E056EDD0EE82EFED7052ECC
:10FF6400FCD700D0084A092A0950800A800F040EE1
:10FF7400D8B4085CD8A001D001D0D8D79FD79ED7D9
:10FF8400000E076E040E066E0750800A800F080EDE
:10FF9400D8B4065CD8A001D001D002D08FD78ED7B8
:10FFA40006C001F007C002F022ECFFF0820E056EDD
:10FFB400DD0EE82EFED7052EFCD700D006C001F0DA
:10FFC40007C002F0EBECFEF0820E056EDD0EE82EAB
:10FFD400FED7052EFCD700D0064A072A0750800A10
:10FFE400800F080ED8B4065CD8A001D001D0D8D7B1
:0CFFF40065D764D763D762D701EF00F037
:020000040020DA
:08000000FFFFFFFFFFFFFFFF00
:020000040030CA
:0E000000FF010D0E830280FFFFC0FFE0FF40F6
:00000001FF
