:0600000000F062EFFFF0CA
:020000040001F9
:10FEC400066A056A046A036A026A016A00016BEF42
:10FED400FFF00F0EC16E010E926E000E946E00D0F4
:10FEE400000E086E020E076EC9ECFFF0820E0B6E58
:10FEF400DD0EE82EFED70B2EFCD700D0000E086EC8
:10FF0400020E076E92ECFFF0820E0B6EDD0EE82EF1
:10FF1400FED70B2EFCD700D0E3D7E2D701EF00F0D9
:10FF240012D0828233D0828031D0828C2FD0828EC4
:10FF34002DD082842BD0828629D0828827D0828AB1
:10FF440025D024D023D007C009F008C00AF00A50F5
:10FF5400000AD8B401D01AD00950000AD8B4E1D7A5
:10FF6400010AD8B4E0D7030AD8B4DFD7010AD8B459
:10FF7400DED7070AD8B4DDD7010AD8B4DCD7030A20
:10FF8400D8B4DBD7010AD8B4DAD700D0120012D023
:10FF9400829233D0829031D0829C2FD0829E2DD0F9
:10FFA40082942BD0829629D0829827D0829A25D009
:10FFB40024D023D007C009F008C00AF00A50000A70
:10FFC400D8B401D01AD00950000AD8B4E1D7010A34
:10FFD400D8B4E0D7030AD8B4DFD7010AD8B4DED73F
:10FFE400070AD8B4DDD7010AD8B4DCD7030AD8B4D9
:0CFFF400DBD7010AD8B4DAD700D0120025
:020000040020DA
:08000000FFFFFFFFFFFFFFFF00
:020000040030CA
:0E000000FF010D0E830280FFFFC0FFE0FF40F6
:00000001FF
