:0600000000F01EEFFFF00E
:020000040001F9
:10FE3C00000158EFFFF00F0EC16E010E926E010E15
:10FE4C00996E010E976E000E946E9A8E12009A8C1B
:10FE5C0000F000D09AAC01D001D0FCD700F000D05B
:10FE6C00000E9ABA010E016E00F000D09A9C01505F
:10FE7C0000D01200056E000E066E0550070E0664CB
:10FE8C0001D001D002D00DD00CD006C001F0026A16
:10FE9C0092ECFFF0062A070E066401D001D0F5D7CC
:10FEAC0000D0120021ECFFF040ECFFF000D0076E08
:10FEBC00D00E026E075073ECFFF00009D8B401D0DD
:10FECC0001D0F5D7000E026E000E016EC9ECFFF0EA
:10FEDC00EED7EDD7ECD701EF00F0036E800E046E79
:10FEEC00035011D0025004140009D8B401D001D031
:10FEFC0002D09A8A02D09A9A00D02DECFFF0D890BA
:10FF0C000430046E00D0046601D001D0EBD79A8A7D
:10FF1C002DECFFF000D0120012D08B8233D08B80EE
:10FF2C0031D08B8C2FD08B8E2DD08B842BD08B867D
:10FF3C0029D08B8827D08B8A25D024D023D001C000
:10FF4C0003F002C004F00450000AD8B401D01AD057
:10FF5C000350000AD8B4E1D7010AD8B4E0D7030A99
:10FF6C00D8B4DFD7010AD8B4DED7070AD8B4DDD7A6
:10FF7C00010AD8B4DCD7030AD8B4DBD7010AD8B449
:10FF8C00DAD700D0120012D08B9233D08B9031D0B4
:10FF9C008B9C2FD08B9E2DD08B942BD08B9629D0D5
:10FFAC008B9827D08B9A25D024D023D001C003F076
:10FFBC0002C004F00450000AD8B401D01AD0035087
:10FFCC00000AD8B4E1D7010AD8B4E0D7030AD8B4F0
:10FFDC00DFD7010AD8B4DED7070AD8B4DDD7010AB7
:10FFEC00D8B4DCD7030AD8B4DBD7010AD8B4DAD733
:04FFFC0000D012001F
:020000040020DA
:08000000FFFFFFFFFFFFFFFF00
:020000040030CA
:0E000000FF010D0E830280FFFFC0FFE0FF40F6
:00000001FF
