:0600000000F028EFFFF004
:020000040001F9
:10FE50000001A4EFFFF00F0EC16E010E926E010EB5
:10FE6000996E010E976E000E946E120012D08B8266
:10FE700033D08B8031D08B8C2FD08B8E2DD08B8438
:10FE80002BD08B8629D08B8827D08B8A25D024D065
:10FE900023D001C003F002C004F00450000AD8B41B
:10FEA00001D01AD00350000AD8B4E1D7010AD8B45F
:10FEB000E0D7030AD8B4DFD7010AD8B4DED7070ADF
:10FEC000D8B4DDD7010AD8B4DCD7030AD8B4DBD75D
:10FED000010AD8B4DAD700D0120012D08B9233D0F6
:10FEE0008B9031D08B9C2FD08B9E2DD08B942BD090
:10FEF0008B9629D08B9827D08B9A25D024D023D0CD
:10FF000001C003F002C004F00450000AD8B401D0CC
:10FF10001AD00350000AD8B4E1D7010AD8B4E0D708
:10FF2000030AD8B4DFD7010AD8B4DED7070AD8B499
:10FF3000DDD7010AD8B4DCD7030AD8B4DBD7010A6D
:10FF4000D8B4DAD700D012002BECFFF000D0000EAE
:10FF5000076E000E066E820E056EDD0EE82EFED7D1
:10FF6000052EFCD700D0820E056EDD0EE82EFED7E2
:10FF7000052EFCD700D0820E056EDD0EE82EFED7D2
:10FF8000052EFCD700D0000E076E000E066E07503F
:10FF9000800A800F080ED8B4065CD8A001D001D02A
:10FFA00002D0D5D7D4D706C001F007C002F06DEC5F
:10FFB000FFF0820E056EDD0EE82EFED7052EFCD773
:10FFC00000D006C001F007C002F036ECFFF0820E50
:10FFD000056EDD0EE82EFED7052EFCD700D0064AB2
:10FFE000072A0750800A800F080ED8B4065CD8A0F4
:10FFF00001D001D0D8D7ABD7AAD7A9D701EF00F04D
:020000040020DA
:08000000FFFFFFFFFFFFFFFF00
:020000040030CA
:0E000000FF010D0E830280FFFFC0FFE0FF40F6
:00000001FF
