:0600000000F0FBEFFEF032
:020000040001F9
:10FDF600116A106A0F6A0E6A0D6A0C6A000172EFC8
:10FE0600FFF012D0828233D0828031D0828C2FD004
:10FE1600828E2DD082842BD0828629D0828827D0CC
:10FE2600828A25D024D023D001C003F002C004F07A
:10FE36000450000AD8B401D01AD00350000AD8B42E
:10FE4600E1D7010AD8B4E0D7030AD8B4DFD7010A4C
:10FE5600D8B4DED7070AD8B4DDD7010AD8B4DCD7C0
:10FE6600030AD8B4DBD7010AD8B4DAD700D0120017
:10FE760012D0829233D0829031D0829C2FD0829E33
:10FE86002DD082942BD0829629D0829827D0829A20
:10FE960025D024D023D001C003F002C004F00450C2
:10FEA600000AD8B401D01AD00350000AD8B4E1D75A
:10FEB600010AD8B4E0D7030AD8B4DFD7010AD8B408
:10FEC600DED7070AD8B4DDD7010AD8B4DCD7030ACF
:10FED600D8B4DBD7010AD8B4DAD700D012000F0E97
:10FEE600C16E010E926E000E946E000E076E000E2D
:10FEF600066E80AA01D001D03ED0000E096E000E1B
:10FF0600086E000E096E000E086E0950800A800FFA
:10FF1600040ED8B4085CD8A001D001D002D0E5D731
:10FF2600E4D708C001F009C002F03BECFFF0820EF6
:10FF3600056EDD0EE82EFED7052EFCD700D008C0D4
:10FF460001F009C002F004ECFFF0820E056EDD0E32
:10FF5600E82EFED7052EFCD700D0084A092A0950FC
:10FF6600800A800F040ED8B4085CD8A001D001D056
:10FF7600D8D7BBD7BAD7000E0B6E000E0A6E000E8E
:10FF86000B6E040E0A6E0B50800A800F080ED8B452
:10FF96000A5CD8A001D001D002D0A7D7A6D70AC044
:10FFA60001F00BC002F03BECFFF0820E056EDD0E99
:10FFB600E82EFED7052EFCD700D00AC001F00BC0F4
:10FFC60002F004ECFFF0820E056EDD0EE82EFED781
:10FFD600052EFCD700D00A4A0B2A0B50800A800F48
:10FFE600080ED8B40A5CD8A001D001D0D8D77DD7E6
:0AFFF6007CD77BD77AD701EF00F02B
:020000040020DA
:08000000FFFFFFFFFFFFFFFF00
:020000040030CA
:0E000000FF010D0E830280FFFFC0FFE0FF40F6
:00000001FF
